{
  "contractName": "dBank",
  "abi": [
    {
      "inputs": [
        {
          "internalType": "contract HanToken",
          "name": "_token",
          "type": "address"
        }
      ],
      "stateMutability": "nonpayable",
      "type": "constructor"
    },
    {
      "anonymous": false,
      "inputs": [
        {
          "indexed": true,
          "internalType": "address",
          "name": "user",
          "type": "address"
        },
        {
          "indexed": false,
          "internalType": "uint256",
          "name": "etherAmount",
          "type": "uint256"
        },
        {
          "indexed": false,
          "internalType": "uint256",
          "name": "timeStart",
          "type": "uint256"
        }
      ],
      "name": "Deposit",
      "type": "event"
    },
    {
      "anonymous": false,
      "inputs": [
        {
          "indexed": true,
          "internalType": "address",
          "name": "user",
          "type": "address"
        },
        {
          "indexed": false,
          "internalType": "uint256",
          "name": "etherAmount",
          "type": "uint256"
        },
        {
          "indexed": false,
          "internalType": "uint256",
          "name": "depositTime",
          "type": "uint256"
        },
        {
          "indexed": false,
          "internalType": "uint256",
          "name": "interest",
          "type": "uint256"
        }
      ],
      "name": "Withdraw",
      "type": "event"
    },
    {
      "inputs": [
        {
          "internalType": "address",
          "name": "",
          "type": "address"
        }
      ],
      "name": "depositStart",
      "outputs": [
        {
          "internalType": "uint256",
          "name": "",
          "type": "uint256"
        }
      ],
      "stateMutability": "view",
      "type": "function",
      "constant": true
    },
    {
      "inputs": [
        {
          "internalType": "address",
          "name": "",
          "type": "address"
        }
      ],
      "name": "etherBalanceOf",
      "outputs": [
        {
          "internalType": "uint256",
          "name": "",
          "type": "uint256"
        }
      ],
      "stateMutability": "view",
      "type": "function",
      "constant": true
    },
    {
      "inputs": [
        {
          "internalType": "address",
          "name": "",
          "type": "address"
        }
      ],
      "name": "isDeposited",
      "outputs": [
        {
          "internalType": "bool",
          "name": "",
          "type": "bool"
        }
      ],
      "stateMutability": "view",
      "type": "function",
      "constant": true
    },
    {
      "inputs": [],
      "name": "deposit",
      "outputs": [],
      "stateMutability": "payable",
      "type": "function",
      "payable": true
    },
    {
      "inputs": [],
      "name": "withdraw",
      "outputs": [],
      "stateMutability": "nonpayable",
      "type": "function"
    }
  ],
  "bytecode": "0x608060405234801561001057600080fd5b50604051610d90380380610d908339818101604052810190610032919061008d565b806000806101000a81548173ffffffffffffffffffffffffffffffffffffffff021916908373ffffffffffffffffffffffffffffffffffffffff16021790555050610111565b600081519050610087816100fa565b92915050565b60006020828403121561009f57600080fd5b60006100ad84828501610078565b91505092915050565b60006100c1826100da565b9050919050565b60006100d3826100b6565b9050919050565b600073ffffffffffffffffffffffffffffffffffffffff82169050919050565b610103816100c8565b811461010e57600080fd5b50565b610c70806101206000396000f3fe60806040526004361061004a5760003560e01c8063179fc99f1461004f5780633ccfd60b1461008c57806373732024146100a3578063d0e30db0146100e0578063ff87930a146100ea575b600080fd5b34801561005b57600080fd5b50610076600480360381019061007191906107d8565b610127565b604051610083919061093b565b60405180910390f35b34801561009857600080fd5b506100a161013f565b005b3480156100af57600080fd5b506100ca60048036038101906100c591906107d8565b6104e8565b6040516100d791906108c0565b60405180910390f35b6100e8610508565b005b3480156100f657600080fd5b50610111600480360381019061010c91906107d8565b6107ab565b60405161011e919061093b565b60405180910390f35b60016020528060005260406000206000915090505481565b60011515600360003373ffffffffffffffffffffffffffffffffffffffff1673ffffffffffffffffffffffffffffffffffffffff16815260200190815260200160002060009054906101000a900460ff161515146101d2576040517f08c379a00000000000000000000000000000000000000000000000000000000081526004016101c9906108db565b60405180910390fd5b6000600160003373ffffffffffffffffffffffffffffffffffffffff1673ffffffffffffffffffffffffffffffffffffffff1681526020019081526020016000205490506000600260003373ffffffffffffffffffffffffffffffffffffffff1673ffffffffffffffffffffffffffffffffffffffff16815260200190815260200160002054426102639190610aa8565b90506000662386f26fc10000600160003373ffffffffffffffffffffffffffffffffffffffff1673ffffffffffffffffffffffffffffffffffffffff168152602001908152602001600020546102b99190610a1d565b6301e337316102c89190610a4e565b9050600082826102d89190610a4e565b905060008054906101000a900473ffffffffffffffffffffffffffffffffffffffff1673ffffffffffffffffffffffffffffffffffffffff166340c10f1933836040518363ffffffff1660e01b8152600401610335929190610897565b600060405180830381600087803b15801561034f57600080fd5b505af1158015610363573d6000803e3d6000fd5b505050503373ffffffffffffffffffffffffffffffffffffffff166108fc859081150290604051600060405180830381858888f193505050501580156103ad573d6000803e3d6000fd5b506000600260003373ffffffffffffffffffffffffffffffffffffffff1673ffffffffffffffffffffffffffffffffffffffff168152602001908152602001600020819055506000600160003373ffffffffffffffffffffffffffffffffffffffff1673ffffffffffffffffffffffffffffffffffffffff168152602001908152602001600020819055506000600360003373ffffffffffffffffffffffffffffffffffffffff1673ffffffffffffffffffffffffffffffffffffffff16815260200190815260200160002060006101000a81548160ff0219169083151502179055503373ffffffffffffffffffffffffffffffffffffffff167f02f25270a4d87bea75db541cdfe559334a275b4a233520ed6c0a2429667cca948585846040516104da9392919061097f565b60405180910390a250505050565b60036020528060005260406000206000915054906101000a900460ff1681565b60001515600360003373ffffffffffffffffffffffffffffffffffffffff1673ffffffffffffffffffffffffffffffffffffffff16815260200190815260200160002060009054906101000a900460ff1615151461059b576040517f08c379a0000000000000000000000000000000000000000000000000000000008152600401610592906108fb565b60405180910390fd5b662386f26fc100003410156105e5576040517f08c379a00000000000000000000000000000000000000000000000000000000081526004016105dc9061091b565b60405180910390fd5b34600160003373ffffffffffffffffffffffffffffffffffffffff1673ffffffffffffffffffffffffffffffffffffffff1681526020019081526020016000205461063091906109c7565b600160003373ffffffffffffffffffffffffffffffffffffffff1673ffffffffffffffffffffffffffffffffffffffff1681526020019081526020016000208190555042600260003373ffffffffffffffffffffffffffffffffffffffff1673ffffffffffffffffffffffffffffffffffffffff168152602001908152602001600020546106be91906109c7565b600260003373ffffffffffffffffffffffffffffffffffffffff1673ffffffffffffffffffffffffffffffffffffffff168152602001908152602001600020819055506001600360003373ffffffffffffffffffffffffffffffffffffffff1673ffffffffffffffffffffffffffffffffffffffff16815260200190815260200160002060006101000a81548160ff0219169083151502179055503373ffffffffffffffffffffffffffffffffffffffff167f90890809c654f11d6e72a28fa60149770a0d11ec6c92319d6ceb2bb0a4ea1a1534426040516107a1929190610956565b60405180910390a2565b60026020528060005260406000206000915090505481565b6000813590506107d281610c23565b92915050565b6000602082840312156107ea57600080fd5b60006107f8848285016107c3565b91505092915050565b61080a81610adc565b82525050565b61081981610aee565b82525050565b600061082c601a836109b6565b915061083782610b82565b602082019050919050565b600061084f601c836109b6565b915061085a82610bab565b602082019050919050565b60006108726022836109b6565b915061087d82610bd4565b604082019050919050565b61089181610b1a565b82525050565b60006040820190506108ac6000830185610801565b6108b96020830184610888565b9392505050565b60006020820190506108d56000830184610810565b92915050565b600060208201905081810360008301526108f48161081f565b9050919050565b6000602082019050818103600083015261091481610842565b9050919050565b6000602082019050818103600083015261093481610865565b9050919050565b60006020820190506109506000830184610888565b92915050565b600060408201905061096b6000830185610888565b6109786020830184610888565b9392505050565b60006060820190506109946000830186610888565b6109a16020830185610888565b6109ae6040830184610888565b949350505050565b600082825260208201905092915050565b60006109d282610b1a565b91506109dd83610b1a565b9250827fffffffffffffffffffffffffffffffffffffffffffffffffffffffffffffffff03821115610a1257610a11610b24565b5b828201905092915050565b6000610a2882610b1a565b9150610a3383610b1a565b925082610a4357610a42610b53565b5b828204905092915050565b6000610a5982610b1a565b9150610a6483610b1a565b9250817fffffffffffffffffffffffffffffffffffffffffffffffffffffffffffffffff0483118215151615610a9d57610a9c610b24565b5b828202905092915050565b6000610ab382610b1a565b9150610abe83610b1a565b925082821015610ad157610ad0610b24565b5b828203905092915050565b6000610ae782610afa565b9050919050565b60008115159050919050565b600073ffffffffffffffffffffffffffffffffffffffff82169050919050565b6000819050919050565b7f4e487b7100000000000000000000000000000000000000000000000000000000600052601160045260246000fd5b7f4e487b7100000000000000000000000000000000000000000000000000000000600052601260045260246000fd5b7f4572726f722c204e6f2050726576696f7573204465706f736974000000000000600082015250565b7f4572726f72204465706f73697420416c72656164792041637469766500000000600082015250565b7f4572726f722c204465706f736974206d757374206265203e3d20302e3031204560008201527f5448000000000000000000000000000000000000000000000000000000000000602082015250565b610c2c81610adc565b8114610c3757600080fd5b5056fea264697066735822122014bdc904fdf5a0fc18d0d88ccab3b9078fc46ab7be3a8e3a0bf575b7e62a726864736f6c63430008040033",
  "immutableReferences": {},
  "source": "// SPDX-License-Identifier: MIT\npragma solidity ^0.8.4;\n\nimport \"./HanToken.sol\";\n\ncontract dBank {\n    // initialize token\n    HanToken private token;\n\n    // create a mapping of accounts with balance\n    mapping(address => uint) public etherBalanceOf;\n    mapping(address => uint) public depositStart;\n    mapping(address => bool) public isDeposited;\n\n    // events\n    event Deposit(address indexed user, uint etherAmount, uint timeStart);\n    event Withdraw(address indexed user, uint etherAmount, uint depositTime, uint interest);\n\n    constructor(HanToken _token) {\n        token = _token;\n    }\n\n    function deposit() payable public {\n        require(isDeposited[msg.sender] == false, \"Error Deposit Already Active\");\n        require(msg.value >= 1e16, \"Error, Deposit must be >= 0.01 ETH\");\n\n        etherBalanceOf[msg.sender] = etherBalanceOf[msg.sender] + msg.value;\n\n        depositStart[msg.sender] = depositStart[msg.sender] + block.timestamp;\n\n        isDeposited[msg.sender] = true;\n\n        emit Deposit(msg.sender, msg.value, block.timestamp);\n    }\n\n    function withdraw() public {\n        require(isDeposited[msg.sender] == true, \"Error, No Previous Deposit\");\n\n        uint userBalance = etherBalanceOf[msg.sender];\n\n        uint depositTime = block.timestamp - depositStart[msg.sender];\n\n        uint interestPerSecond = 31668017 * (etherBalanceOf[msg.sender] / 1e16);\n\n        uint interest = interestPerSecond * depositTime;\n\n        token.mint(msg.sender, interest);\n\n        payable(msg.sender).transfer(userBalance);\n\n        depositStart[msg.sender] = 0;\n        etherBalanceOf[msg.sender] = 0;\n        isDeposited[msg.sender] = false;\n\n        emit Withdraw(msg.sender, userBalance, depositTime, interest);\n    }\n}",
  "sourcePath": "/Users/rhandalltimtiman/projects/blockchain/token-farm/contracts/dBank.sol",
  "compiler": {
    "name": "solc",
    "version": "0.8.4+commit.c7e474f2.Emscripten.clang"
  },
  "schemaVersion": "3.4.1",
  "updatedAt": "2021-05-25T09:59:40.310Z",
  "networkType": "ethereum",
  "devdoc": {
    "kind": "dev",
    "methods": {},
    "version": 1
  },
  "userdoc": {
    "kind": "user",
    "methods": {},
    "version": 1
  }
}